:0200000077285F
:08000800FF00030E8312031335
:10001000A0000A0EA100040EA2008A110A127F2875
:10002000A808031D14280800F93000000000000093
:100030000000FF3E031D1528000000000000000026
:100040000000A80B14280800831203138C148C12D0
:1000500083168C108C1683121112911591101110A9
:1000600016139616161296111611161097171713C7
:100070009716171692010F30930008002608003CCF
:1000800027080318031DA71B080007146430A800E5
:10009000102007106430A8001020A6080319A70339
:1000A000A6033E287130831603138F000730831296
:1000B0009900C0308B0083168C16083085004030C4
:1000C0008700910183128501870124200330A60057
:1000D000A7013E20A40803197028A40B70288710DC
:1000E000A50803196A28A50B6A2807116A28831234
:1000F0000313A301A401A5018A110A125228831235
:1001000003138C1E9F281408A9002908F83A031924
:100110009328023A03199728013A03199C28073AB1
:1001200003199E289F288714FF30A4009F280715D5
:100130000714FF30A5009F2807149F280710220EE0
:100140008400210E8A00200E8300FF0E7F0E09001E
:02400E00D43F9D
:00000001FF
